{
  "_format": "hh-sol-artifact-1",
  "contractName": "GovernorAlpha",
  "sourceName": "contracts/GovernorAlpha.sol",
  "abi": [
    {
      "inputs": [
        {
          "internalType": "address",
          "name": "voto_",
          "type": "address"
        }
      ],
      "payable": false,
      "stateMutability": "nonpayable",
      "type": "constructor"
    },
    {
      "anonymous": false,
      "inputs": [
        {
          "indexed": false,
          "internalType": "uint256",
          "name": "id",
          "type": "uint256"
        }
      ],
      "name": "ProposalCreated",
      "type": "event"
    },
    {
      "anonymous": false,
      "inputs": [
        {
          "indexed": false,
          "internalType": "uint256",
          "name": "timestamp",
          "type": "uint256"
        }
      ],
      "name": "ValidityStatus",
      "type": "event"
    },
    {
      "anonymous": false,
      "inputs": [
        {
          "indexed": false,
          "internalType": "address",
          "name": "voter",
          "type": "address"
        },
        {
          "indexed": false,
          "internalType": "uint256",
          "name": "proposalId",
          "type": "uint256"
        },
        {
          "indexed": false,
          "internalType": "bool",
          "name": "support",
          "type": "bool"
        },
        {
          "indexed": false,
          "internalType": "uint256",
          "name": "votes",
          "type": "uint256"
        }
      ],
      "name": "VoteCast",
      "type": "event"
    },
    {
      "constant": false,
      "inputs": [
        {
          "internalType": "uint256",
          "name": "proposalId",
          "type": "uint256"
        },
        {
          "internalType": "bool",
          "name": "support",
          "type": "bool"
        }
      ],
      "name": "castVote",
      "outputs": [],
      "payable": false,
      "stateMutability": "nonpayable",
      "type": "function"
    },
    {
      "constant": true,
      "inputs": [
        {
          "internalType": "address",
          "name": "_user",
          "type": "address"
        },
        {
          "internalType": "uint256",
          "name": "proposalId",
          "type": "uint256"
        }
      ],
      "name": "checkHasVoted",
      "outputs": [
        {
          "internalType": "bool",
          "name": "",
          "type": "bool"
        }
      ],
      "payable": false,
      "stateMutability": "view",
      "type": "function"
    },
    {
      "constant": true,
      "inputs": [],
      "name": "getValidityStatus",
      "outputs": [
        {
          "internalType": "uint256",
          "name": "",
          "type": "uint256"
        },
        {
          "internalType": "uint256",
          "name": "",
          "type": "uint256"
        }
      ],
      "payable": false,
      "stateMutability": "view",
      "type": "function"
    },
    {
      "constant": true,
      "inputs": [
        {
          "internalType": "uint256",
          "name": "",
          "type": "uint256"
        }
      ],
      "name": "isProposalActive",
      "outputs": [
        {
          "internalType": "bool",
          "name": "",
          "type": "bool"
        }
      ],
      "payable": false,
      "stateMutability": "view",
      "type": "function"
    },
    {
      "constant": true,
      "inputs": [
        {
          "internalType": "address",
          "name": "",
          "type": "address"
        }
      ],
      "name": "latestProposalIds",
      "outputs": [
        {
          "internalType": "uint256",
          "name": "",
          "type": "uint256"
        }
      ],
      "payable": false,
      "stateMutability": "view",
      "type": "function"
    },
    {
      "constant": true,
      "inputs": [],
      "name": "name",
      "outputs": [
        {
          "internalType": "string",
          "name": "",
          "type": "string"
        }
      ],
      "payable": false,
      "stateMutability": "view",
      "type": "function"
    },
    {
      "constant": true,
      "inputs": [],
      "name": "proposalCount",
      "outputs": [
        {
          "internalType": "uint256",
          "name": "",
          "type": "uint256"
        }
      ],
      "payable": false,
      "stateMutability": "view",
      "type": "function"
    },
    {
      "constant": true,
      "inputs": [
        {
          "internalType": "uint256",
          "name": "",
          "type": "uint256"
        }
      ],
      "name": "proposals",
      "outputs": [
        {
          "internalType": "uint256",
          "name": "id",
          "type": "uint256"
        },
        {
          "internalType": "address",
          "name": "proposer",
          "type": "address"
        },
        {
          "internalType": "uint256",
          "name": "eta",
          "type": "uint256"
        },
        {
          "internalType": "uint256",
          "name": "startBlock",
          "type": "uint256"
        },
        {
          "internalType": "uint256",
          "name": "endBlock",
          "type": "uint256"
        },
        {
          "internalType": "uint256",
          "name": "forVotes",
          "type": "uint256"
        },
        {
          "internalType": "uint256",
          "name": "againstVotes",
          "type": "uint256"
        },
        {
          "internalType": "bool",
          "name": "canceled",
          "type": "bool"
        },
        {
          "internalType": "bool",
          "name": "executed",
          "type": "bool"
        },
        {
          "components": [
            {
              "internalType": "string",
              "name": "title",
              "type": "string"
            },
            {
              "internalType": "string",
              "name": "typeOfAction",
              "type": "string"
            },
            {
              "internalType": "string",
              "name": "neighborhood",
              "type": "string"
            },
            {
              "internalType": "string",
              "name": "personInCharge",
              "type": "string"
            },
            {
              "internalType": "string",
              "name": "description",
              "type": "string"
            },
            {
              "internalType": "string",
              "name": "budget",
              "type": "string"
            },
            {
              "internalType": "uint256",
              "name": "expiration",
              "type": "uint256"
            },
            {
              "internalType": "uint256",
              "name": "requiredVotoToVote",
              "type": "uint256"
            },
            {
              "internalType": "uint256",
              "name": "proposalTime",
              "type": "uint256"
            },
            {
              "internalType": "address",
              "name": "proposer",
              "type": "address"
            }
          ],
          "internalType": "struct GovernorAlpha.UserInputFields",
          "name": "userInputFields",
          "type": "tuple"
        }
      ],
      "payable": false,
      "stateMutability": "view",
      "type": "function"
    },
    {
      "constant": false,
      "inputs": [
        {
          "components": [
            {
              "internalType": "string",
              "name": "title",
              "type": "string"
            },
            {
              "internalType": "string",
              "name": "typeOfAction",
              "type": "string"
            },
            {
              "internalType": "string",
              "name": "neighborhood",
              "type": "string"
            },
            {
              "internalType": "string",
              "name": "personInCharge",
              "type": "string"
            },
            {
              "internalType": "string",
              "name": "description",
              "type": "string"
            },
            {
              "internalType": "string",
              "name": "budget",
              "type": "string"
            },
            {
              "internalType": "uint256",
              "name": "expiration",
              "type": "uint256"
            },
            {
              "internalType": "uint256",
              "name": "requiredVotoToVote",
              "type": "uint256"
            },
            {
              "internalType": "uint256",
              "name": "proposalTime",
              "type": "uint256"
            },
            {
              "internalType": "address",
              "name": "proposer",
              "type": "address"
            }
          ],
          "internalType": "struct GovernorAlpha.UserInputFields",
          "name": "_userInputFields",
          "type": "tuple"
        }
      ],
      "name": "propose",
      "outputs": [
        {
          "internalType": "uint256",
          "name": "",
          "type": "uint256"
        }
      ],
      "payable": false,
      "stateMutability": "nonpayable",
      "type": "function"
    },
    {
      "constant": true,
      "inputs": [
        {
          "internalType": "address",
          "name": "",
          "type": "address"
        }
      ],
      "name": "userProposals",
      "outputs": [
        {
          "internalType": "uint256",
          "name": "count",
          "type": "uint256"
        }
      ],
      "payable": false,
      "stateMutability": "view",
      "type": "function"
    },
    {
      "constant": false,
      "inputs": [
        {
          "internalType": "uint256",
          "name": "_rewardedTokens",
          "type": "uint256"
        }
      ],
      "name": "validate",
      "outputs": [
        {
          "internalType": "uint256",
          "name": "",
          "type": "uint256"
        }
      ],
      "payable": false,
      "stateMutability": "nonpayable",
      "type": "function"
    },
    {
      "constant": true,
      "inputs": [
        {
          "internalType": "address",
          "name": "",
          "type": "address"
        }
      ],
      "name": "validations",
      "outputs": [
        {
          "internalType": "uint256",
          "name": "expirationTime",
          "type": "uint256"
        }
      ],
      "payable": false,
      "stateMutability": "view",
      "type": "function"
    },
    {
      "constant": true,
      "inputs": [],
      "name": "votingDelay",
      "outputs": [
        {
          "internalType": "uint256",
          "name": "",
          "type": "uint256"
        }
      ],
      "payable": false,
      "stateMutability": "pure",
      "type": "function"
    },
    {
      "constant": true,
      "inputs": [],
      "name": "votingPeriod",
      "outputs": [
        {
          "internalType": "uint256",
          "name": "",
          "type": "uint256"
        }
      ],
      "payable": false,
      "stateMutability": "pure",
      "type": "function"
    },
    {
      "constant": true,
      "inputs": [],
      "name": "voto",
      "outputs": [
        {
          "internalType": "contract VotoInterface",
          "name": "",
          "type": "address"
        }
      ],
      "payable": false,
      "stateMutability": "view",
      "type": "function"
    }
  ],
  "bytecode": "0x60806040523480156200001157600080fd5b50604051620023e5380380620023e5833981810160405262000037919081019062000095565b806000806101000a81548173ffffffffffffffffffffffffffffffffffffffff021916908373ffffffffffffffffffffffffffffffffffffffff160217905550506200010f565b6000815190506200008f81620000f5565b92915050565b600060208284031215620000a857600080fd5b6000620000b8848285016200007e565b91505092915050565b6000620000ce82620000d5565b9050919050565b600073ffffffffffffffffffffffffffffffffffffffff82169050919050565b6200010081620000c1565b81146200010c57600080fd5b50565b6122c6806200011f6000396000f3fe608060405234801561001057600080fd5b50600436106100f55760003560e01c80633932abb111610097578063c787643411610066578063c7876434146102b8578063ce4d01a3146102d6578063da35c66414610306578063f715534514610324576100f5565b80633932abb11461020a5780635d129b85146102285780637b47502114610258578063b55643e114610288576100f5565b806315373e3d116100d357806315373e3d1461016f578063164b3d2f1461018b57806317977c61146101bb57806331bfb4ca146101eb576100f5565b8063013cf08b146100fa57806302a251a31461013357806306fdde0314610151575b600080fd5b610114600480360361010f91908101906119a4565b610354565b60405161012a9a99989796959493929190611fbb565b60405180910390f35b61013b61082d565b6040516101489190611fa0565b60405180910390f35b610159610837565b6040516101669190611ede565b60405180910390f35b610189600480360361018491908101906119f6565b610870565b005b6101a560048036036101a091908101906119a4565b61087f565b6040516101b29190611ea8565b60405180910390f35b6101d560048036036101d091908101906118d5565b61089f565b6040516101e29190611fa0565b60405180910390f35b6101f36108b7565b60405161020192919061205e565b60405180910390f35b610212610906565b60405161021f9190611fa0565b60405180910390f35b610242600480360361023d91908101906118fe565b61090f565b60405161024f9190611ea8565b60405180910390f35b610272600480360361026d9190810190611963565b610988565b60405161027f9190611fa0565b60405180910390f35b6102a2600480360361029d91908101906118d5565b610ee6565b6040516102af9190611fa0565b60405180910390f35b6102c0610f04565b6040516102cd9190611ec3565b60405180910390f35b6102f060048036036102eb91908101906119a4565b610f29565b6040516102fd9190611fa0565b60405180910390f35b61030e61118f565b60405161031b9190611fa0565b60405180910390f35b61033e600480360361033991908101906118d5565b611195565b60405161034b9190611fa0565b60405180910390f35b60026020528060005260406000206000915090508060000154908060010160009054906101000a900473ffffffffffffffffffffffffffffffffffffffff16908060020154908060030154908060040154908060050154908060060154908060070160009054906101000a900460ff16908060070160019054906101000a900460ff16908060080160405180610140016040529081600082018054600181600116156101000203166002900480601f0160208091040260200160405190810160405280929190818152602001828054600181600116156101000203166002900480156104815780601f1061045657610100808354040283529160200191610481565b820191906000526020600020905b81548152906001019060200180831161046457829003601f168201915b50505050508152602001600182018054600181600116156101000203166002900480601f0160208091040260200160405190810160405280929190818152602001828054600181600116156101000203166002900480156105235780601f106104f857610100808354040283529160200191610523565b820191906000526020600020905b81548152906001019060200180831161050657829003601f168201915b50505050508152602001600282018054600181600116156101000203166002900480601f0160208091040260200160405190810160405280929190818152602001828054600181600116156101000203166002900480156105c55780601f1061059a576101008083540402835291602001916105c5565b820191906000526020600020905b8154815290600101906020018083116105a857829003601f168201915b50505050508152602001600382018054600181600116156101000203166002900480601f0160208091040260200160405190810160405280929190818152602001828054600181600116156101000203166002900480156106675780601f1061063c57610100808354040283529160200191610667565b820191906000526020600020905b81548152906001019060200180831161064a57829003601f168201915b50505050508152602001600482018054600181600116156101000203166002900480601f0160208091040260200160405190810160405280929190818152602001828054600181600116156101000203166002900480156107095780601f106106de57610100808354040283529160200191610709565b820191906000526020600020905b8154815290600101906020018083116106ec57829003601f168201915b50505050508152602001600582018054600181600116156101000203166002900480601f0160208091040260200160405190810160405280929190818152602001828054600181600116156101000203166002900480156107ab5780601f10610780576101008083540402835291602001916107ab565b820191906000526020600020905b81548152906001019060200180831161078e57829003601f168201915b505050505081526020016006820154815260200160078201548152602001600882015481526020016009820160009054906101000a900473ffffffffffffffffffffffffffffffffffffffff1673ffffffffffffffffffffffffffffffffffffffff1673ffffffffffffffffffffffffffffffffffffffff168152505090508a565b6000610e10905090565b6040518060400160405280601281526020017f564f544152304f204349554441442044414f000000000000000000000000000081525081565b61087b3383836111b3565b5050565b60046020528060005260406000206000915054906101000a900460ff1681565b60036020528060005260406000206000915090505481565b600080600560003373ffffffffffffffffffffffffffffffffffffffff1673ffffffffffffffffffffffffffffffffffffffff1681526020019081526020016000206000015442915091509091565b60006001905090565b60008060026000848152602001908152602001600020905060008160120160008673ffffffffffffffffffffffffffffffffffffffff1673ffffffffffffffffffffffffffffffffffffffff16815260200190815260200160002090508060000160009054906101000a900460ff169250505092915050565b60008042600560003373ffffffffffffffffffffffffffffffffffffffff1673ffffffffffffffffffffffffffffffffffffffff1681526020019081526020016000206000015411156109de57600190506109e3565b600090505b80610a23576040517f08c379a0000000000000000000000000000000000000000000000000000000008152600401610a1a90611f00565b60405180910390fd5b600a600660003373ffffffffffffffffffffffffffffffffffffffff1673ffffffffffffffffffffffffffffffffffffffff168152602001908152602001600020600001541015610bbe5760008060009054906101000a900473ffffffffffffffffffffffffffffffffffffffff1673ffffffffffffffffffffffffffffffffffffffff166323b872dd3033678ac7230489e800006040518463ffffffff1660e01b8152600401610ad693929190611df5565b602060405180830381600087803b158015610af057600080fd5b505af1158015610b04573d6000803e3d6000fd5b505050506040513d601f19601f82011682018060405250610b28919081019061193a565b905080610b6a576040517f08c379a0000000000000000000000000000000000000000000000000000000008152600401610b6190611f60565b60405180910390fd5b600660003373ffffffffffffffffffffffffffffffffffffffff1673ffffffffffffffffffffffffffffffffffffffff16815260200190815260200160002060000160008154809291906001019190505550505b6000610bd142610bcc610906565b6114c0565b90506000610be682610be161082d565b6114c0565b9050600160008154809291906001019190505550610c02611515565b60405180610140016040528060015481526020013373ffffffffffffffffffffffffffffffffffffffff1681526020016000815260200184815260200183815260200160008152602001600081526020016000151581526020016000151581526020018781525090508060026000836000015181526020019081526020016000206000820151816000015560208201518160010160006101000a81548173ffffffffffffffffffffffffffffffffffffffff021916908373ffffffffffffffffffffffffffffffffffffffff16021790555060408201518160020155606082015181600301556080820151816004015560a0820151816005015560c0820151816006015560e08201518160070160006101000a81548160ff0219169083151502179055506101008201518160070160016101000a81548160ff021916908315150217905550610120820151816008016000820151816000019080519060200190610d6d929190611588565b506020820151816001019080519060200190610d8a929190611588565b506040820151816002019080519060200190610da7929190611588565b506060820151816003019080519060200190610dc4929190611588565b506080820151816004019080519060200190610de1929190611588565b5060a0820151816005019080519060200190610dfe929190611588565b5060c0820151816006015560e0820151816007015561010082015181600801556101208201518160090160006101000a81548173ffffffffffffffffffffffffffffffffffffffff021916908373ffffffffffffffffffffffffffffffffffffffff16021790555050509050506001600460008360000151815260200190815260200160002060006101000a81548160ff0219169083151502179055507fc2c021f5d73c63c481d336fbbafec58f694fc45095f00b02d2deb8cca59afe078160000151604051610ece9190611fa0565b60405180910390a18060000151945050505050919050565b60066020528060005260406000206000915090508060000154905081565b6000809054906101000a900473ffffffffffffffffffffffffffffffffffffffff1681565b600080600560003373ffffffffffffffffffffffffffffffffffffffff1673ffffffffffffffffffffffffffffffffffffffff1681526020019081526020016000206000015414156110d357604051806020016040528062f0c8a04201815250600560003373ffffffffffffffffffffffffffffffffffffffff1673ffffffffffffffffffffffffffffffffffffffff1681526020019081526020016000206000820151816000015590505060008060009054906101000a900473ffffffffffffffffffffffffffffffffffffffff1673ffffffffffffffffffffffffffffffffffffffff166323b872dd3033866040518463ffffffff1660e01b815260040161103593929190611e2c565b602060405180830381600087803b15801561104f57600080fd5b505af1158015611063573d6000803e3d6000fd5b505050506040513d601f19601f82011682018060405250611087919081019061193a565b9050806110c9576040517f08c379a00000000000000000000000000000000000000000000000000000000081526004016110c090611f60565b60405180910390fd5b600091505061118a565b42600560003373ffffffffffffffffffffffffffffffffffffffff1673ffffffffffffffffffffffffffffffffffffffff1681526020019081526020016000206000015410611125576001905061118a565b604051806020016040528062f0c8a04201815250600560003373ffffffffffffffffffffffffffffffffffffffff1673ffffffffffffffffffffffffffffffffffffffff16815260200190815260200160002060008201518160000155905050600290505b919050565b60015481565b60056020528060005260406000206000915090508060000154905081565b600060026000848152602001908152602001600020905060008160120160008673ffffffffffffffffffffffffffffffffffffffff1673ffffffffffffffffffffffffffffffffffffffff168152602001908152602001600020905081600401544211156112485760006004600086815260200190815260200160002060006101000a81548160ff0219169083151502179055505b600115156004600086815260200190815260200160002060009054906101000a900460ff161515146112af576040517f08c379a00000000000000000000000000000000000000000000000000000000081526004016112a690611f80565b60405180910390fd5b60008060009054906101000a900473ffffffffffffffffffffffffffffffffffffffff1673ffffffffffffffffffffffffffffffffffffffff166370a08231336040518263ffffffff1660e01b815260040161130b9190611dda565b60206040518083038186803b15801561132357600080fd5b505afa158015611337573d6000803e3d6000fd5b505050506040513d601f19601f8201168201806040525061135b91908101906119cd565b90506000819050600015158360000160009054906101000a900460ff161515146113ba576040517f08c379a00000000000000000000000000000000000000000000000000000000081526004016113b190611f20565b60405180910390fd5b84156113e9576113dc8460050154826bffffffffffffffffffffffff166114c0565b846005018190555061140e565b6114058460060154826bffffffffffffffffffffffff166114c0565b84600601819055505b60018360000160006101000a81548160ff021916908315150217905550848360000160016101000a81548160ff021916908315150217905550808360000160026101000a8154816bffffffffffffffffffffffff02191690836bffffffffffffffffffffffff1602179055507f877856338e13f63d0c36822ff0ef736b80934cd90574a3a5bc9262c39d217c46878787846040516114af9493929190611e63565b60405180910390a150505050505050565b60008082840190508381101561150b576040517f08c379a000000000000000000000000000000000000000000000000000000000815260040161150290611f40565b60405180910390fd5b8091505092915050565b60405180610140016040528060008152602001600073ffffffffffffffffffffffffffffffffffffffff1681526020016000815260200160008152602001600081526020016000815260200160008152602001600015158152602001600015158152602001611582611608565b81525090565b828054600181600116156101000203166002900490600052602060002090601f016020900481019282601f106115c957805160ff19168380011785556115f7565b828001600101855582156115f7579182015b828111156115f65782518255916020019190600101906115db565b5b5090506116049190611671565b5090565b604051806101400160405280606081526020016060815260200160608152602001606081526020016060815260200160608152602001600081526020016000815260200160008152602001600073ffffffffffffffffffffffffffffffffffffffff1681525090565b61169391905b8082111561168f576000816000905550600101611677565b5090565b90565b6000813590506116a58161223e565b92915050565b6000813590506116ba81612255565b92915050565b6000815190506116cf81612255565b92915050565b600082601f8301126116e657600080fd5b81356116f96116f4826120b4565b612087565b9150808252602083016020830185838301111561171557600080fd5b6117208382846121eb565b50505092915050565b6000610140828403121561173c57600080fd5b611747610140612087565b9050600082013567ffffffffffffffff81111561176357600080fd5b61176f848285016116d5565b600083015250602082013567ffffffffffffffff81111561178f57600080fd5b61179b848285016116d5565b602083015250604082013567ffffffffffffffff8111156117bb57600080fd5b6117c7848285016116d5565b604083015250606082013567ffffffffffffffff8111156117e757600080fd5b6117f3848285016116d5565b606083015250608082013567ffffffffffffffff81111561181357600080fd5b61181f848285016116d5565b60808301525060a082013567ffffffffffffffff81111561183f57600080fd5b61184b848285016116d5565b60a08301525060c061185f848285016118ab565b60c08301525060e0611873848285016118ab565b60e083015250610100611888848285016118ab565b6101008301525061012061189e84828501611696565b6101208301525092915050565b6000813590506118ba8161226c565b92915050565b6000815190506118cf8161226c565b92915050565b6000602082840312156118e757600080fd5b60006118f584828501611696565b91505092915050565b6000806040838503121561191157600080fd5b600061191f85828601611696565b9250506020611930858286016118ab565b9150509250929050565b60006020828403121561194c57600080fd5b600061195a848285016116c0565b91505092915050565b60006020828403121561197557600080fd5b600082013567ffffffffffffffff81111561198f57600080fd5b61199b84828501611729565b91505092915050565b6000602082840312156119b657600080fd5b60006119c4848285016118ab565b91505092915050565b6000602082840312156119df57600080fd5b60006119ed848285016118c0565b91505092915050565b60008060408385031215611a0957600080fd5b6000611a17858286016118ab565b9250506020611a28858286016116ab565b9150509250929050565b611a3b8161216d565b82525050565b611a4a8161210d565b82525050565b611a598161210d565b82525050565b611a688161211f565b82525050565b611a778161217f565b82525050565b611a86816121a3565b82525050565b6000611a97826120e0565b611aa181856120eb565b9350611ab18185602086016121fa565b611aba8161222d565b840191505092915050565b6000611ad0826120e0565b611ada81856120fc565b9350611aea8185602086016121fa565b611af38161222d565b840191505092915050565b6000611b0b601f836120fc565b91507f75736572206973206e6f742063757272656e746c792076616c696461746564006000830152602082019050919050565b6000611b4b602d836120fc565b91507f476f7665726e6f72416c7068613a3a5f63617374566f74653a20766f7465722060008301527f616c726561647920766f746564000000000000000000000000000000000000006020830152604082019050919050565b6000611bb16011836120fc565b91507f6164646974696f6e206f766572666c6f770000000000000000000000000000006000830152602082019050919050565b6000611bf16024836120fc565b91507f546f6b656e73206e6f74207472616e7366657272656420746f206d73672e736560008301527f6e646572000000000000000000000000000000000000000000000000000000006020830152604082019050919050565b6000611c57602a836120fc565b91507f476f7665726e6f72416c7068613a3a5f63617374566f74653a20766f74696e6760008301527f20697320636c6f736564000000000000000000000000000000000000000000006020830152604082019050919050565b6000610140830160008301518482036000860152611cce8282611a8c565b91505060208301518482036020860152611ce88282611a8c565b91505060408301518482036040860152611d028282611a8c565b91505060608301518482036060860152611d1c8282611a8c565b91505060808301518482036080860152611d368282611a8c565b91505060a083015184820360a0860152611d508282611a8c565b91505060c0830151611d6560c0860182611dad565b5060e0830151611d7860e0860182611dad565b50610100830151611d8d610100860182611dad565b50610120830151611da2610120860182611a41565b508091505092915050565b611db68161214b565b82525050565b611dc58161214b565b82525050565b611dd4816121d9565b82525050565b6000602082019050611def6000830184611a32565b92915050565b6000606082019050611e0a6000830186611a50565b611e176020830185611a32565b611e246040830184611a7d565b949350505050565b6000606082019050611e416000830186611a50565b611e4e6020830185611a32565b611e5b6040830184611dbc565b949350505050565b6000608082019050611e786000830187611a50565b611e856020830186611dbc565b611e926040830185611a5f565b611e9f6060830184611dcb565b95945050505050565b6000602082019050611ebd6000830184611a5f565b92915050565b6000602082019050611ed86000830184611a6e565b92915050565b60006020820190508181036000830152611ef88184611ac5565b905092915050565b60006020820190508181036000830152611f1981611afe565b9050919050565b60006020820190508181036000830152611f3981611b3e565b9050919050565b60006020820190508181036000830152611f5981611ba4565b9050919050565b60006020820190508181036000830152611f7981611be4565b9050919050565b60006020820190508181036000830152611f9981611c4a565b9050919050565b6000602082019050611fb56000830184611dbc565b92915050565b600061014082019050611fd1600083018d611dbc565b611fde602083018c611a50565b611feb604083018b611dbc565b611ff8606083018a611dbc565b6120056080830189611dbc565b61201260a0830188611dbc565b61201f60c0830187611dbc565b61202c60e0830186611a5f565b61203a610100830185611a5f565b81810361012083015261204d8184611cb0565b90509b9a5050505050505050505050565b60006040820190506120736000830185611dbc565b6120806020830184611dbc565b9392505050565b6000604051905081810181811067ffffffffffffffff821117156120aa57600080fd5b8060405250919050565b600067ffffffffffffffff8211156120cb57600080fd5b601f19601f8301169050602081019050919050565b600081519050919050565b600082825260208201905092915050565b600082825260208201905092915050565b60006121188261212b565b9050919050565b60008115159050919050565b600073ffffffffffffffffffffffffffffffffffffffff82169050919050565b6000819050919050565b60006bffffffffffffffffffffffff82169050919050565b6000612178826121b5565b9050919050565b600061218a82612191565b9050919050565b600061219c8261212b565b9050919050565b60006121ae8261214b565b9050919050565b60006121c0826121c7565b9050919050565b60006121d28261212b565b9050919050565b60006121e482612155565b9050919050565b82818337600083830152505050565b60005b838110156122185780820151818401526020810190506121fd565b83811115612227576000848401525b50505050565b6000601f19601f8301169050919050565b6122478161210d565b811461225257600080fd5b50565b61225e8161211f565b811461226957600080fd5b50565b6122758161214b565b811461228057600080fd5b5056fea365627a7a7231582028e11af70bb166e36c342790a7809d25cb806ac23a360289fa032ba4f953c4816c6578706572696d656e74616cf564736f6c63430005100040",
  "linkReferences": {},
  "deployedLinkReferences": {}
}