{
  "_format": "hh-sol-artifact-1",
  "contractName": "GovernorAlpha",
  "sourceName": "contracts/GovernorAlpha.sol",
  "abi": [
    {
      "inputs": [
        {
          "internalType": "address",
          "name": "taro_",
          "type": "address"
        }
      ],
      "payable": false,
      "stateMutability": "nonpayable",
      "type": "constructor"
    },
    {
      "anonymous": false,
      "inputs": [
        {
          "indexed": false,
          "internalType": "uint256",
          "name": "id",
          "type": "uint256"
        }
      ],
      "name": "ProposalCreated",
      "type": "event"
    },
    {
      "anonymous": false,
      "inputs": [
        {
          "indexed": false,
          "internalType": "uint256",
          "name": "timestamp",
          "type": "uint256"
        }
      ],
      "name": "ValidityStatus",
      "type": "event"
    },
    {
      "anonymous": false,
      "inputs": [
        {
          "indexed": false,
          "internalType": "address",
          "name": "voter",
          "type": "address"
        },
        {
          "indexed": false,
          "internalType": "uint256",
          "name": "proposalId",
          "type": "uint256"
        },
        {
          "indexed": false,
          "internalType": "bool",
          "name": "support",
          "type": "bool"
        },
        {
          "indexed": false,
          "internalType": "uint256",
          "name": "votes",
          "type": "uint256"
        }
      ],
      "name": "VoteCast",
      "type": "event"
    },
    {
      "constant": false,
      "inputs": [
        {
          "internalType": "uint256",
          "name": "proposalId",
          "type": "uint256"
        },
        {
          "internalType": "bool",
          "name": "support",
          "type": "bool"
        }
      ],
      "name": "castVote",
      "outputs": [],
      "payable": false,
      "stateMutability": "nonpayable",
      "type": "function"
    },
    {
      "constant": true,
      "inputs": [
        {
          "internalType": "address",
          "name": "_user",
          "type": "address"
        },
        {
          "internalType": "uint256",
          "name": "proposalId",
          "type": "uint256"
        }
      ],
      "name": "checkHasVoted",
      "outputs": [
        {
          "internalType": "bool",
          "name": "",
          "type": "bool"
        }
      ],
      "payable": false,
      "stateMutability": "view",
      "type": "function"
    },
    {
      "constant": true,
      "inputs": [],
      "name": "getValidityStatus",
      "outputs": [
        {
          "internalType": "uint256",
          "name": "",
          "type": "uint256"
        },
        {
          "internalType": "uint256",
          "name": "",
          "type": "uint256"
        }
      ],
      "payable": false,
      "stateMutability": "view",
      "type": "function"
    },
    {
      "constant": true,
      "inputs": [
        {
          "internalType": "uint256",
          "name": "",
          "type": "uint256"
        }
      ],
      "name": "isProposalActive",
      "outputs": [
        {
          "internalType": "bool",
          "name": "",
          "type": "bool"
        }
      ],
      "payable": false,
      "stateMutability": "view",
      "type": "function"
    },
    {
      "constant": true,
      "inputs": [
        {
          "internalType": "address",
          "name": "",
          "type": "address"
        }
      ],
      "name": "latestProposalIds",
      "outputs": [
        {
          "internalType": "uint256",
          "name": "",
          "type": "uint256"
        }
      ],
      "payable": false,
      "stateMutability": "view",
      "type": "function"
    },
    {
      "constant": true,
      "inputs": [],
      "name": "name",
      "outputs": [
        {
          "internalType": "string",
          "name": "",
          "type": "string"
        }
      ],
      "payable": false,
      "stateMutability": "view",
      "type": "function"
    },
    {
      "constant": true,
      "inputs": [],
      "name": "proposalCount",
      "outputs": [
        {
          "internalType": "uint256",
          "name": "",
          "type": "uint256"
        }
      ],
      "payable": false,
      "stateMutability": "view",
      "type": "function"
    },
    {
      "constant": true,
      "inputs": [
        {
          "internalType": "uint256",
          "name": "",
          "type": "uint256"
        }
      ],
      "name": "proposals",
      "outputs": [
        {
          "internalType": "uint256",
          "name": "id",
          "type": "uint256"
        },
        {
          "internalType": "address",
          "name": "proposer",
          "type": "address"
        },
        {
          "internalType": "uint256",
          "name": "eta",
          "type": "uint256"
        },
        {
          "internalType": "uint256",
          "name": "startBlock",
          "type": "uint256"
        },
        {
          "internalType": "uint256",
          "name": "endBlock",
          "type": "uint256"
        },
        {
          "internalType": "uint256",
          "name": "forVotes",
          "type": "uint256"
        },
        {
          "internalType": "uint256",
          "name": "againstVotes",
          "type": "uint256"
        },
        {
          "internalType": "bool",
          "name": "canceled",
          "type": "bool"
        },
        {
          "internalType": "bool",
          "name": "executed",
          "type": "bool"
        },
        {
          "components": [
            {
              "internalType": "string",
              "name": "title",
              "type": "string"
            },
            {
              "internalType": "string",
              "name": "typeOfAction",
              "type": "string"
            },
            {
              "internalType": "string",
              "name": "neighborhood",
              "type": "string"
            },
            {
              "internalType": "string",
              "name": "personInCharge",
              "type": "string"
            },
            {
              "internalType": "string",
              "name": "description",
              "type": "string"
            },
            {
              "internalType": "uint256",
              "name": "expiration",
              "type": "uint256"
            },
            {
              "internalType": "uint256",
              "name": "budget",
              "type": "uint256"
            },
            {
              "internalType": "uint256",
              "name": "requiredTaroToVote",
              "type": "uint256"
            },
            {
              "internalType": "uint256",
              "name": "proposalTime",
              "type": "uint256"
            },
            {
              "internalType": "address",
              "name": "proposer",
              "type": "address"
            }
          ],
          "internalType": "struct GovernorAlpha.UserInputFields",
          "name": "userInputFields",
          "type": "tuple"
        }
      ],
      "payable": false,
      "stateMutability": "view",
      "type": "function"
    },
    {
      "constant": false,
      "inputs": [
        {
          "components": [
            {
              "internalType": "string",
              "name": "title",
              "type": "string"
            },
            {
              "internalType": "string",
              "name": "typeOfAction",
              "type": "string"
            },
            {
              "internalType": "string",
              "name": "neighborhood",
              "type": "string"
            },
            {
              "internalType": "string",
              "name": "personInCharge",
              "type": "string"
            },
            {
              "internalType": "string",
              "name": "description",
              "type": "string"
            },
            {
              "internalType": "uint256",
              "name": "expiration",
              "type": "uint256"
            },
            {
              "internalType": "uint256",
              "name": "budget",
              "type": "uint256"
            },
            {
              "internalType": "uint256",
              "name": "requiredTaroToVote",
              "type": "uint256"
            },
            {
              "internalType": "uint256",
              "name": "proposalTime",
              "type": "uint256"
            },
            {
              "internalType": "address",
              "name": "proposer",
              "type": "address"
            }
          ],
          "internalType": "struct GovernorAlpha.UserInputFields",
          "name": "_userInputFields",
          "type": "tuple"
        }
      ],
      "name": "propose",
      "outputs": [
        {
          "internalType": "uint256",
          "name": "",
          "type": "uint256"
        }
      ],
      "payable": false,
      "stateMutability": "nonpayable",
      "type": "function"
    },
    {
      "constant": true,
      "inputs": [],
      "name": "taro",
      "outputs": [
        {
          "internalType": "contract TaroInterface",
          "name": "",
          "type": "address"
        }
      ],
      "payable": false,
      "stateMutability": "view",
      "type": "function"
    },
    {
      "constant": true,
      "inputs": [
        {
          "internalType": "address",
          "name": "",
          "type": "address"
        }
      ],
      "name": "userProposals",
      "outputs": [
        {
          "internalType": "uint256",
          "name": "count",
          "type": "uint256"
        }
      ],
      "payable": false,
      "stateMutability": "view",
      "type": "function"
    },
    {
      "constant": false,
      "inputs": [
        {
          "internalType": "uint256",
          "name": "_rewardedTokens",
          "type": "uint256"
        }
      ],
      "name": "validate",
      "outputs": [
        {
          "internalType": "uint256",
          "name": "",
          "type": "uint256"
        }
      ],
      "payable": false,
      "stateMutability": "nonpayable",
      "type": "function"
    },
    {
      "constant": true,
      "inputs": [
        {
          "internalType": "address",
          "name": "",
          "type": "address"
        }
      ],
      "name": "validations",
      "outputs": [
        {
          "internalType": "uint256",
          "name": "expirationTime",
          "type": "uint256"
        }
      ],
      "payable": false,
      "stateMutability": "view",
      "type": "function"
    },
    {
      "constant": true,
      "inputs": [],
      "name": "votingDelay",
      "outputs": [
        {
          "internalType": "uint256",
          "name": "",
          "type": "uint256"
        }
      ],
      "payable": false,
      "stateMutability": "pure",
      "type": "function"
    },
    {
      "constant": true,
      "inputs": [],
      "name": "votingPeriod",
      "outputs": [
        {
          "internalType": "uint256",
          "name": "",
          "type": "uint256"
        }
      ],
      "payable": false,
      "stateMutability": "pure",
      "type": "function"
    }
  ],
  "bytecode": "0x60806040523480156200001157600080fd5b506040516200231d3803806200231d833981810160405262000037919081019062000095565b806000806101000a81548173ffffffffffffffffffffffffffffffffffffffff021916908373ffffffffffffffffffffffffffffffffffffffff160217905550506200010f565b6000815190506200008f81620000f5565b92915050565b600060208284031215620000a857600080fd5b6000620000b8848285016200007e565b91505092915050565b6000620000ce82620000d5565b9050919050565b600073ffffffffffffffffffffffffffffffffffffffff82169050919050565b6200010081620000c1565b81146200010c57600080fd5b50565b6121fe806200011f6000396000f3fe608060405234801561001057600080fd5b50600436106100f55760003560e01c806337d4e38611610097578063b55643e111610066578063b55643e1146102a6578063ce4d01a3146102d6578063da35c66414610306578063f715534514610324576100f5565b806337d4e3861461020a5780633932abb1146102285780635d129b85146102465780639b44388c14610276576100f5565b806315373e3d116100d357806315373e3d1461016f578063164b3d2f1461018b57806317977c61146101bb57806331bfb4ca146101eb576100f5565b8063013cf08b146100fa57806302a251a31461013357806306fdde0314610151575b600080fd5b610114600480360361010f91908101906118e3565b610354565b60405161012a9a99989796959493929190611ef3565b60405180910390f35b61013b610795565b6040516101489190611ed8565b60405180910390f35b6101596107a0565b6040516101669190611e16565b60405180910390f35b61018960048036036101849190810190611935565b6107d9565b005b6101a560048036036101a091908101906118e3565b6107e8565b6040516101b29190611de0565b60405180910390f35b6101d560048036036101d09190810190611814565b610808565b6040516101e29190611ed8565b60405180910390f35b6101f3610820565b604051610201929190611f96565b60405180910390f35b61021261086f565b60405161021f9190611dfb565b60405180910390f35b610230610894565b60405161023d9190611ed8565b60405180910390f35b610260600480360361025b919081019061183d565b61089d565b60405161026d9190611de0565b60405180910390f35b610290600480360361028b91908101906118a2565b610916565b60405161029d9190611ed8565b60405180910390f35b6102c060048036036102bb9190810190611814565b610e62565b6040516102cd9190611ed8565b60405180910390f35b6102f060048036036102eb91908101906118e3565b610e80565b6040516102fd9190611ed8565b60405180910390f35b61030e6110e6565b60405161031b9190611ed8565b60405180910390f35b61033e60048036036103399190810190611814565b6110ec565b60405161034b9190611ed8565b60405180910390f35b60026020528060005260406000206000915090508060000154908060010160009054906101000a900473ffffffffffffffffffffffffffffffffffffffff16908060020154908060030154908060040154908060050154908060060154908060070160009054906101000a900460ff16908060070160019054906101000a900460ff16908060080160405180610140016040529081600082018054600181600116156101000203166002900480601f0160208091040260200160405190810160405280929190818152602001828054600181600116156101000203166002900480156104815780601f1061045657610100808354040283529160200191610481565b820191906000526020600020905b81548152906001019060200180831161046457829003601f168201915b50505050508152602001600182018054600181600116156101000203166002900480601f0160208091040260200160405190810160405280929190818152602001828054600181600116156101000203166002900480156105235780601f106104f857610100808354040283529160200191610523565b820191906000526020600020905b81548152906001019060200180831161050657829003601f168201915b50505050508152602001600282018054600181600116156101000203166002900480601f0160208091040260200160405190810160405280929190818152602001828054600181600116156101000203166002900480156105c55780601f1061059a576101008083540402835291602001916105c5565b820191906000526020600020905b8154815290600101906020018083116105a857829003601f168201915b50505050508152602001600382018054600181600116156101000203166002900480601f0160208091040260200160405190810160405280929190818152602001828054600181600116156101000203166002900480156106675780601f1061063c57610100808354040283529160200191610667565b820191906000526020600020905b81548152906001019060200180831161064a57829003601f168201915b50505050508152602001600482018054600181600116156101000203166002900480601f0160208091040260200160405190810160405280929190818152602001828054600181600116156101000203166002900480156107095780601f106106de57610100808354040283529160200191610709565b820191906000526020600020905b8154815290600101906020018083116106ec57829003601f168201915b50505050508152602001600582015481526020016006820154815260200160078201548152602001600882015481526020016009820160009054906101000a900473ffffffffffffffffffffffffffffffffffffffff1673ffffffffffffffffffffffffffffffffffffffff1673ffffffffffffffffffffffffffffffffffffffff168152505090508a565b60006203f480905090565b6040518060400160405280601581526020017f566f5461726f20476f7665726e6f7220416c706861000000000000000000000081525081565b6107e433838361110a565b5050565b60046020528060005260406000206000915054906101000a900460ff1681565b60036020528060005260406000206000915090505481565b600080600560003373ffffffffffffffffffffffffffffffffffffffff1673ffffffffffffffffffffffffffffffffffffffff1681526020019081526020016000206000015442915091509091565b6000809054906101000a900473ffffffffffffffffffffffffffffffffffffffff1681565b60006001905090565b60008060026000848152602001908152602001600020905060008160120160008673ffffffffffffffffffffffffffffffffffffffff1673ffffffffffffffffffffffffffffffffffffffff16815260200190815260200160002090508060000160009054906101000a900460ff169250505092915050565b60008042600560003373ffffffffffffffffffffffffffffffffffffffff1673ffffffffffffffffffffffffffffffffffffffff16815260200190815260200160002060000154111561096c5760019050610971565b600090505b806109b1576040517f08c379a00000000000000000000000000000000000000000000000000000000081526004016109a890611e38565b60405180910390fd5b6005600660003373ffffffffffffffffffffffffffffffffffffffff1673ffffffffffffffffffffffffffffffffffffffff168152602001908152602001600020600001541015610b4d5760008060009054906101000a900473ffffffffffffffffffffffffffffffffffffffff1673ffffffffffffffffffffffffffffffffffffffff166323b872dd30336801158e460913d000006040518463ffffffff1660e01b8152600401610a6593929190611d2d565b602060405180830381600087803b158015610a7f57600080fd5b505af1158015610a93573d6000803e3d6000fd5b505050506040513d601f19601f82011682018060405250610ab79190810190611879565b905080610af9576040517f08c379a0000000000000000000000000000000000000000000000000000000008152600401610af090611e98565b60405180910390fd5b600660003373ffffffffffffffffffffffffffffffffffffffff1673ffffffffffffffffffffffffffffffffffffffff16815260200190815260200160002060000160008154809291906001019190505550505b6000610b6042610b5b610894565b611417565b90506000610b7582610b70610795565b611417565b9050600160008154809291906001019190505550610b9161146c565b60405180610140016040528060015481526020013373ffffffffffffffffffffffffffffffffffffffff1681526020016000815260200184815260200183815260200160008152602001600081526020016000151581526020016000151581526020018781525090508060026000836000015181526020019081526020016000206000820151816000015560208201518160010160006101000a81548173ffffffffffffffffffffffffffffffffffffffff021916908373ffffffffffffffffffffffffffffffffffffffff16021790555060408201518160020155606082015181600301556080820151816004015560a0820151816005015560c0820151816006015560e08201518160070160006101000a81548160ff0219169083151502179055506101008201518160070160016101000a81548160ff021916908315150217905550610120820151816008016000820151816000019080519060200190610cfc9291906114df565b506020820151816001019080519060200190610d199291906114df565b506040820151816002019080519060200190610d369291906114df565b506060820151816003019080519060200190610d539291906114df565b506080820151816004019080519060200190610d709291906114df565b5060a0820151816005015560c0820151816006015560e0820151816007015561010082015181600801556101208201518160090160006101000a81548173ffffffffffffffffffffffffffffffffffffffff021916908373ffffffffffffffffffffffffffffffffffffffff16021790555050509050506001600460008360000151815260200190815260200160002060006101000a81548160ff0219169083151502179055507fc2c021f5d73c63c481d336fbbafec58f694fc45095f00b02d2deb8cca59afe078160000151604051610e4a9190611ed8565b60405180910390a18060000151945050505050919050565b60066020528060005260406000206000915090508060000154905081565b600080600560003373ffffffffffffffffffffffffffffffffffffffff1673ffffffffffffffffffffffffffffffffffffffff16815260200190815260200160002060000154141561102a57604051806020016040528062f0c8a04201815250600560003373ffffffffffffffffffffffffffffffffffffffff1673ffffffffffffffffffffffffffffffffffffffff1681526020019081526020016000206000820151816000015590505060008060009054906101000a900473ffffffffffffffffffffffffffffffffffffffff1673ffffffffffffffffffffffffffffffffffffffff166323b872dd3033866040518463ffffffff1660e01b8152600401610f8c93929190611d64565b602060405180830381600087803b158015610fa657600080fd5b505af1158015610fba573d6000803e3d6000fd5b505050506040513d601f19601f82011682018060405250610fde9190810190611879565b905080611020576040517f08c379a000000000000000000000000000000000000000000000000000000000815260040161101790611e98565b60405180910390fd5b60009150506110e1565b42600560003373ffffffffffffffffffffffffffffffffffffffff1673ffffffffffffffffffffffffffffffffffffffff168152602001908152602001600020600001541061107c57600190506110e1565b604051806020016040528062f0c8a04201815250600560003373ffffffffffffffffffffffffffffffffffffffff1673ffffffffffffffffffffffffffffffffffffffff16815260200190815260200160002060008201518160000155905050600290505b919050565b60015481565b60056020528060005260406000206000915090508060000154905081565b600060026000848152602001908152602001600020905060008160120160008673ffffffffffffffffffffffffffffffffffffffff1673ffffffffffffffffffffffffffffffffffffffff1681526020019081526020016000209050816004015442111561119f5760006004600086815260200190815260200160002060006101000a81548160ff0219169083151502179055505b600115156004600086815260200190815260200160002060009054906101000a900460ff16151514611206576040517f08c379a00000000000000000000000000000000000000000000000000000000081526004016111fd90611eb8565b60405180910390fd5b60008060009054906101000a900473ffffffffffffffffffffffffffffffffffffffff1673ffffffffffffffffffffffffffffffffffffffff166370a08231336040518263ffffffff1660e01b81526004016112629190611d12565b60206040518083038186803b15801561127a57600080fd5b505afa15801561128e573d6000803e3d6000fd5b505050506040513d601f19601f820116820180604052506112b2919081019061190c565b90506000819050600015158360000160009054906101000a900460ff16151514611311576040517f08c379a000000000000000000000000000000000000000000000000000000000815260040161130890611e58565b60405180910390fd5b8415611340576113338460050154826bffffffffffffffffffffffff16611417565b8460050181905550611365565b61135c8460060154826bffffffffffffffffffffffff16611417565b84600601819055505b60018360000160006101000a81548160ff021916908315150217905550848360000160016101000a81548160ff021916908315150217905550808360000160026101000a8154816bffffffffffffffffffffffff02191690836bffffffffffffffffffffffff1602179055507f877856338e13f63d0c36822ff0ef736b80934cd90574a3a5bc9262c39d217c46878787846040516114069493929190611d9b565b60405180910390a150505050505050565b600080828401905083811015611462576040517f08c379a000000000000000000000000000000000000000000000000000000000815260040161145990611e78565b60405180910390fd5b8091505092915050565b60405180610140016040528060008152602001600073ffffffffffffffffffffffffffffffffffffffff16815260200160008152602001600081526020016000815260200160008152602001600081526020016000151581526020016000151581526020016114d961155f565b81525090565b828054600181600116156101000203166002900490600052602060002090601f016020900481019282601f1061152057805160ff191683800117855561154e565b8280016001018555821561154e579182015b8281111561154d578251825591602001919060010190611532565b5b50905061155b91906115c8565b5090565b604051806101400160405280606081526020016060815260200160608152602001606081526020016060815260200160008152602001600081526020016000815260200160008152602001600073ffffffffffffffffffffffffffffffffffffffff1681525090565b6115ea91905b808211156115e65760008160009055506001016115ce565b5090565b90565b6000813590506115fc81612176565b92915050565b6000813590506116118161218d565b92915050565b6000815190506116268161218d565b92915050565b600082601f83011261163d57600080fd5b813561165061164b82611fec565b611fbf565b9150808252602083016020830185838301111561166c57600080fd5b611677838284612123565b50505092915050565b6000610140828403121561169357600080fd5b61169e610140611fbf565b9050600082013567ffffffffffffffff8111156116ba57600080fd5b6116c68482850161162c565b600083015250602082013567ffffffffffffffff8111156116e657600080fd5b6116f28482850161162c565b602083015250604082013567ffffffffffffffff81111561171257600080fd5b61171e8482850161162c565b604083015250606082013567ffffffffffffffff81111561173e57600080fd5b61174a8482850161162c565b606083015250608082013567ffffffffffffffff81111561176a57600080fd5b6117768482850161162c565b60808301525060a061178a848285016117ea565b60a08301525060c061179e848285016117ea565b60c08301525060e06117b2848285016117ea565b60e0830152506101006117c7848285016117ea565b610100830152506101206117dd848285016115ed565b6101208301525092915050565b6000813590506117f9816121a4565b92915050565b60008151905061180e816121a4565b92915050565b60006020828403121561182657600080fd5b6000611834848285016115ed565b91505092915050565b6000806040838503121561185057600080fd5b600061185e858286016115ed565b925050602061186f858286016117ea565b9150509250929050565b60006020828403121561188b57600080fd5b600061189984828501611617565b91505092915050565b6000602082840312156118b457600080fd5b600082013567ffffffffffffffff8111156118ce57600080fd5b6118da84828501611680565b91505092915050565b6000602082840312156118f557600080fd5b6000611903848285016117ea565b91505092915050565b60006020828403121561191e57600080fd5b600061192c848285016117ff565b91505092915050565b6000806040838503121561194857600080fd5b6000611956858286016117ea565b925050602061196785828601611602565b9150509250929050565b61197a816120a5565b82525050565b61198981612045565b82525050565b61199881612045565b82525050565b6119a781612057565b82525050565b6119b6816120b7565b82525050565b6119c5816120db565b82525050565b60006119d682612018565b6119e08185612023565b93506119f0818560208601612132565b6119f981612165565b840191505092915050565b6000611a0f82612018565b611a198185612034565b9350611a29818560208601612132565b611a3281612165565b840191505092915050565b6000611a4a601f83612034565b91507f75736572206973206e6f742063757272656e746c792076616c696461746564006000830152602082019050919050565b6000611a8a602d83612034565b91507f476f7665726e6f72416c7068613a3a5f63617374566f74653a20766f7465722060008301527f616c726561647920766f746564000000000000000000000000000000000000006020830152604082019050919050565b6000611af0601183612034565b91507f6164646974696f6e206f766572666c6f770000000000000000000000000000006000830152602082019050919050565b6000611b30602483612034565b91507f546f6b656e73206e6f74207472616e7366657272656420746f206d73672e736560008301527f6e646572000000000000000000000000000000000000000000000000000000006020830152604082019050919050565b6000611b96602a83612034565b91507f476f7665726e6f72416c7068613a3a5f63617374566f74653a20766f74696e6760008301527f20697320636c6f736564000000000000000000000000000000000000000000006020830152604082019050919050565b6000610140830160008301518482036000860152611c0d82826119cb565b91505060208301518482036020860152611c2782826119cb565b91505060408301518482036040860152611c4182826119cb565b91505060608301518482036060860152611c5b82826119cb565b91505060808301518482036080860152611c7582826119cb565b91505060a0830151611c8a60a0860182611ce5565b5060c0830151611c9d60c0860182611ce5565b5060e0830151611cb060e0860182611ce5565b50610100830151611cc5610100860182611ce5565b50610120830151611cda610120860182611980565b508091505092915050565b611cee81612083565b82525050565b611cfd81612083565b82525050565b611d0c81612111565b82525050565b6000602082019050611d276000830184611971565b92915050565b6000606082019050611d42600083018661198f565b611d4f6020830185611971565b611d5c60408301846119bc565b949350505050565b6000606082019050611d79600083018661198f565b611d866020830185611971565b611d936040830184611cf4565b949350505050565b6000608082019050611db0600083018761198f565b611dbd6020830186611cf4565b611dca604083018561199e565b611dd76060830184611d03565b95945050505050565b6000602082019050611df5600083018461199e565b92915050565b6000602082019050611e1060008301846119ad565b92915050565b60006020820190508181036000830152611e308184611a04565b905092915050565b60006020820190508181036000830152611e5181611a3d565b9050919050565b60006020820190508181036000830152611e7181611a7d565b9050919050565b60006020820190508181036000830152611e9181611ae3565b9050919050565b60006020820190508181036000830152611eb181611b23565b9050919050565b60006020820190508181036000830152611ed181611b89565b9050919050565b6000602082019050611eed6000830184611cf4565b92915050565b600061014082019050611f09600083018d611cf4565b611f16602083018c61198f565b611f23604083018b611cf4565b611f30606083018a611cf4565b611f3d6080830189611cf4565b611f4a60a0830188611cf4565b611f5760c0830187611cf4565b611f6460e083018661199e565b611f7261010083018561199e565b818103610120830152611f858184611bef565b90509b9a5050505050505050505050565b6000604082019050611fab6000830185611cf4565b611fb86020830184611cf4565b9392505050565b6000604051905081810181811067ffffffffffffffff82111715611fe257600080fd5b8060405250919050565b600067ffffffffffffffff82111561200357600080fd5b601f19601f8301169050602081019050919050565b600081519050919050565b600082825260208201905092915050565b600082825260208201905092915050565b600061205082612063565b9050919050565b60008115159050919050565b600073ffffffffffffffffffffffffffffffffffffffff82169050919050565b6000819050919050565b60006bffffffffffffffffffffffff82169050919050565b60006120b0826120ed565b9050919050565b60006120c2826120c9565b9050919050565b60006120d482612063565b9050919050565b60006120e682612083565b9050919050565b60006120f8826120ff565b9050919050565b600061210a82612063565b9050919050565b600061211c8261208d565b9050919050565b82818337600083830152505050565b60005b83811015612150578082015181840152602081019050612135565b8381111561215f576000848401525b50505050565b6000601f19601f8301169050919050565b61217f81612045565b811461218a57600080fd5b50565b61219681612057565b81146121a157600080fd5b50565b6121ad81612083565b81146121b857600080fd5b5056fea365627a7a723158200f88cab9069982b60e7d6f56d7abf1a55cbeaf0e029acdf95a671cca26bad7df6c6578706572696d656e74616cf564736f6c63430005100040",
  "linkReferences": {},
  "deployedLinkReferences": {}
}