{
  "_format": "hh-sol-artifact-1",
  "contractName": "GovernorAlpha",
  "sourceName": "contracts/GovernorAlpha.sol",
  "abi": [
    {
      "inputs": [
        {
          "internalType": "address",
          "name": "taro_",
          "type": "address"
        }
      ],
      "payable": false,
      "stateMutability": "nonpayable",
      "type": "constructor"
    },
    {
      "anonymous": false,
      "inputs": [
        {
          "indexed": false,
          "internalType": "uint256",
          "name": "id",
          "type": "uint256"
        }
      ],
      "name": "ProposalCreated",
      "type": "event"
    },
    {
      "anonymous": false,
      "inputs": [
        {
          "indexed": false,
          "internalType": "uint256",
          "name": "timestamp",
          "type": "uint256"
        }
      ],
      "name": "ValidityStatus",
      "type": "event"
    },
    {
      "anonymous": false,
      "inputs": [
        {
          "indexed": false,
          "internalType": "address",
          "name": "voter",
          "type": "address"
        },
        {
          "indexed": false,
          "internalType": "uint256",
          "name": "proposalId",
          "type": "uint256"
        },
        {
          "indexed": false,
          "internalType": "bool",
          "name": "support",
          "type": "bool"
        },
        {
          "indexed": false,
          "internalType": "uint256",
          "name": "votes",
          "type": "uint256"
        }
      ],
      "name": "VoteCast",
      "type": "event"
    },
    {
      "constant": false,
      "inputs": [
        {
          "internalType": "uint256",
          "name": "proposalId",
          "type": "uint256"
        },
        {
          "internalType": "bool",
          "name": "support",
          "type": "bool"
        }
      ],
      "name": "castVote",
      "outputs": [],
      "payable": false,
      "stateMutability": "nonpayable",
      "type": "function"
    },
    {
      "constant": true,
      "inputs": [
        {
          "internalType": "address",
          "name": "_user",
          "type": "address"
        },
        {
          "internalType": "uint256",
          "name": "proposalId",
          "type": "uint256"
        }
      ],
      "name": "checkHasVoted",
      "outputs": [
        {
          "internalType": "bool",
          "name": "",
          "type": "bool"
        }
      ],
      "payable": false,
      "stateMutability": "view",
      "type": "function"
    },
    {
      "constant": true,
      "inputs": [],
      "name": "getValidityStatus",
      "outputs": [
        {
          "internalType": "uint256",
          "name": "",
          "type": "uint256"
        },
        {
          "internalType": "uint256",
          "name": "",
          "type": "uint256"
        }
      ],
      "payable": false,
      "stateMutability": "view",
      "type": "function"
    },
    {
      "constant": true,
      "inputs": [
        {
          "internalType": "uint256",
          "name": "",
          "type": "uint256"
        }
      ],
      "name": "isProposalActive",
      "outputs": [
        {
          "internalType": "bool",
          "name": "",
          "type": "bool"
        }
      ],
      "payable": false,
      "stateMutability": "view",
      "type": "function"
    },
    {
      "constant": true,
      "inputs": [
        {
          "internalType": "address",
          "name": "",
          "type": "address"
        }
      ],
      "name": "latestProposalIds",
      "outputs": [
        {
          "internalType": "uint256",
          "name": "",
          "type": "uint256"
        }
      ],
      "payable": false,
      "stateMutability": "view",
      "type": "function"
    },
    {
      "constant": true,
      "inputs": [],
      "name": "name",
      "outputs": [
        {
          "internalType": "string",
          "name": "",
          "type": "string"
        }
      ],
      "payable": false,
      "stateMutability": "view",
      "type": "function"
    },
    {
      "constant": true,
      "inputs": [],
      "name": "proposalCount",
      "outputs": [
        {
          "internalType": "uint256",
          "name": "",
          "type": "uint256"
        }
      ],
      "payable": false,
      "stateMutability": "view",
      "type": "function"
    },
    {
      "constant": true,
      "inputs": [
        {
          "internalType": "uint256",
          "name": "",
          "type": "uint256"
        }
      ],
      "name": "proposals",
      "outputs": [
        {
          "internalType": "uint256",
          "name": "id",
          "type": "uint256"
        },
        {
          "internalType": "address",
          "name": "proposer",
          "type": "address"
        },
        {
          "internalType": "uint256",
          "name": "eta",
          "type": "uint256"
        },
        {
          "internalType": "uint256",
          "name": "startBlock",
          "type": "uint256"
        },
        {
          "internalType": "uint256",
          "name": "endBlock",
          "type": "uint256"
        },
        {
          "internalType": "uint256",
          "name": "forVotes",
          "type": "uint256"
        },
        {
          "internalType": "uint256",
          "name": "againstVotes",
          "type": "uint256"
        },
        {
          "internalType": "bool",
          "name": "canceled",
          "type": "bool"
        },
        {
          "internalType": "bool",
          "name": "executed",
          "type": "bool"
        },
        {
          "components": [
            {
              "internalType": "string",
              "name": "title",
              "type": "string"
            },
            {
              "internalType": "string",
              "name": "typeOfAction",
              "type": "string"
            },
            {
              "internalType": "string",
              "name": "neighborhood",
              "type": "string"
            },
            {
              "internalType": "string",
              "name": "personInCharge",
              "type": "string"
            },
            {
              "internalType": "string",
              "name": "description",
              "type": "string"
            },
            {
              "internalType": "uint256",
              "name": "expiration",
              "type": "uint256"
            },
            {
              "internalType": "uint256",
              "name": "budget",
              "type": "uint256"
            },
            {
              "internalType": "uint256",
              "name": "requiredTaroToVote",
              "type": "uint256"
            },
            {
              "internalType": "uint256",
              "name": "proposalTime",
              "type": "uint256"
            },
            {
              "internalType": "address",
              "name": "proposer",
              "type": "address"
            }
          ],
          "internalType": "struct GovernorAlpha.UserInputFields",
          "name": "userInputFields",
          "type": "tuple"
        }
      ],
      "payable": false,
      "stateMutability": "view",
      "type": "function"
    },
    {
      "constant": false,
      "inputs": [
        {
          "components": [
            {
              "internalType": "string",
              "name": "title",
              "type": "string"
            },
            {
              "internalType": "string",
              "name": "typeOfAction",
              "type": "string"
            },
            {
              "internalType": "string",
              "name": "neighborhood",
              "type": "string"
            },
            {
              "internalType": "string",
              "name": "personInCharge",
              "type": "string"
            },
            {
              "internalType": "string",
              "name": "description",
              "type": "string"
            },
            {
              "internalType": "uint256",
              "name": "expiration",
              "type": "uint256"
            },
            {
              "internalType": "uint256",
              "name": "budget",
              "type": "uint256"
            },
            {
              "internalType": "uint256",
              "name": "requiredTaroToVote",
              "type": "uint256"
            },
            {
              "internalType": "uint256",
              "name": "proposalTime",
              "type": "uint256"
            },
            {
              "internalType": "address",
              "name": "proposer",
              "type": "address"
            }
          ],
          "internalType": "struct GovernorAlpha.UserInputFields",
          "name": "_userInputFields",
          "type": "tuple"
        }
      ],
      "name": "propose",
      "outputs": [
        {
          "internalType": "uint256",
          "name": "",
          "type": "uint256"
        }
      ],
      "payable": false,
      "stateMutability": "nonpayable",
      "type": "function"
    },
    {
      "constant": true,
      "inputs": [],
      "name": "taro",
      "outputs": [
        {
          "internalType": "contract TaroInterface",
          "name": "",
          "type": "address"
        }
      ],
      "payable": false,
      "stateMutability": "view",
      "type": "function"
    },
    {
      "constant": true,
      "inputs": [
        {
          "internalType": "address",
          "name": "",
          "type": "address"
        }
      ],
      "name": "userProposals",
      "outputs": [
        {
          "internalType": "uint256",
          "name": "count",
          "type": "uint256"
        }
      ],
      "payable": false,
      "stateMutability": "view",
      "type": "function"
    },
    {
      "constant": false,
      "inputs": [
        {
          "internalType": "uint256",
          "name": "_rewardedTokens",
          "type": "uint256"
        }
      ],
      "name": "validate",
      "outputs": [
        {
          "internalType": "uint256",
          "name": "",
          "type": "uint256"
        }
      ],
      "payable": false,
      "stateMutability": "nonpayable",
      "type": "function"
    },
    {
      "constant": true,
      "inputs": [
        {
          "internalType": "address",
          "name": "",
          "type": "address"
        }
      ],
      "name": "validations",
      "outputs": [
        {
          "internalType": "uint256",
          "name": "expirationTime",
          "type": "uint256"
        }
      ],
      "payable": false,
      "stateMutability": "view",
      "type": "function"
    },
    {
      "constant": true,
      "inputs": [],
      "name": "votingDelay",
      "outputs": [
        {
          "internalType": "uint256",
          "name": "",
          "type": "uint256"
        }
      ],
      "payable": false,
      "stateMutability": "pure",
      "type": "function"
    },
    {
      "constant": true,
      "inputs": [],
      "name": "votingPeriod",
      "outputs": [
        {
          "internalType": "uint256",
          "name": "",
          "type": "uint256"
        }
      ],
      "payable": false,
      "stateMutability": "pure",
      "type": "function"
    }
  ],
  "bytecode": "0x60806040523480156200001157600080fd5b506040516200231c3803806200231c833981810160405262000037919081019062000095565b806000806101000a81548173ffffffffffffffffffffffffffffffffffffffff021916908373ffffffffffffffffffffffffffffffffffffffff160217905550506200010f565b6000815190506200008f81620000f5565b92915050565b600060208284031215620000a857600080fd5b6000620000b8848285016200007e565b91505092915050565b6000620000ce82620000d5565b9050919050565b600073ffffffffffffffffffffffffffffffffffffffff82169050919050565b6200010081620000c1565b81146200010c57600080fd5b50565b6121fd806200011f6000396000f3fe608060405234801561001057600080fd5b50600436106100f55760003560e01c806337d4e38611610097578063b55643e111610066578063b55643e1146102a6578063ce4d01a3146102d6578063da35c66414610306578063f715534514610324576100f5565b806337d4e3861461020a5780633932abb1146102285780635d129b85146102465780639b44388c14610276576100f5565b806315373e3d116100d357806315373e3d1461016f578063164b3d2f1461018b57806317977c61146101bb57806331bfb4ca146101eb576100f5565b8063013cf08b146100fa57806302a251a31461013357806306fdde0314610151575b600080fd5b610114600480360361010f91908101906118e2565b610354565b60405161012a9a99989796959493929190611ef2565b60405180910390f35b61013b610795565b6040516101489190611ed7565b60405180910390f35b61015961079f565b6040516101669190611e15565b60405180910390f35b61018960048036036101849190810190611934565b6107d8565b005b6101a560048036036101a091908101906118e2565b6107e7565b6040516101b29190611ddf565b60405180910390f35b6101d560048036036101d09190810190611813565b610807565b6040516101e29190611ed7565b60405180910390f35b6101f361081f565b604051610201929190611f95565b60405180910390f35b61021261086e565b60405161021f9190611dfa565b60405180910390f35b610230610893565b60405161023d9190611ed7565b60405180910390f35b610260600480360361025b919081019061183c565b61089c565b60405161026d9190611ddf565b60405180910390f35b610290600480360361028b91908101906118a1565b610915565b60405161029d9190611ed7565b60405180910390f35b6102c060048036036102bb9190810190611813565b610e61565b6040516102cd9190611ed7565b60405180910390f35b6102f060048036036102eb91908101906118e2565b610e7f565b6040516102fd9190611ed7565b60405180910390f35b61030e6110e5565b60405161031b9190611ed7565b60405180910390f35b61033e60048036036103399190810190611813565b6110eb565b60405161034b9190611ed7565b60405180910390f35b60026020528060005260406000206000915090508060000154908060010160009054906101000a900473ffffffffffffffffffffffffffffffffffffffff16908060020154908060030154908060040154908060050154908060060154908060070160009054906101000a900460ff16908060070160019054906101000a900460ff16908060080160405180610140016040529081600082018054600181600116156101000203166002900480601f0160208091040260200160405190810160405280929190818152602001828054600181600116156101000203166002900480156104815780601f1061045657610100808354040283529160200191610481565b820191906000526020600020905b81548152906001019060200180831161046457829003601f168201915b50505050508152602001600182018054600181600116156101000203166002900480601f0160208091040260200160405190810160405280929190818152602001828054600181600116156101000203166002900480156105235780601f106104f857610100808354040283529160200191610523565b820191906000526020600020905b81548152906001019060200180831161050657829003601f168201915b50505050508152602001600282018054600181600116156101000203166002900480601f0160208091040260200160405190810160405280929190818152602001828054600181600116156101000203166002900480156105c55780601f1061059a576101008083540402835291602001916105c5565b820191906000526020600020905b8154815290600101906020018083116105a857829003601f168201915b50505050508152602001600382018054600181600116156101000203166002900480601f0160208091040260200160405190810160405280929190818152602001828054600181600116156101000203166002900480156106675780601f1061063c57610100808354040283529160200191610667565b820191906000526020600020905b81548152906001019060200180831161064a57829003601f168201915b50505050508152602001600482018054600181600116156101000203166002900480601f0160208091040260200160405190810160405280929190818152602001828054600181600116156101000203166002900480156107095780601f106106de57610100808354040283529160200191610709565b820191906000526020600020905b8154815290600101906020018083116106ec57829003601f168201915b50505050508152602001600582015481526020016006820154815260200160078201548152602001600882015481526020016009820160009054906101000a900473ffffffffffffffffffffffffffffffffffffffff1673ffffffffffffffffffffffffffffffffffffffff1673ffffffffffffffffffffffffffffffffffffffff168152505090508a565b6000610e10905090565b6040518060400160405280601581526020017f566f5441524f20476f7665726e6f7220416c706861000000000000000000000081525081565b6107e3338383611109565b5050565b60046020528060005260406000206000915054906101000a900460ff1681565b60036020528060005260406000206000915090505481565b600080600560003373ffffffffffffffffffffffffffffffffffffffff1673ffffffffffffffffffffffffffffffffffffffff1681526020019081526020016000206000015442915091509091565b6000809054906101000a900473ffffffffffffffffffffffffffffffffffffffff1681565b60006001905090565b60008060026000848152602001908152602001600020905060008160120160008673ffffffffffffffffffffffffffffffffffffffff1673ffffffffffffffffffffffffffffffffffffffff16815260200190815260200160002090508060000160009054906101000a900460ff169250505092915050565b60008042600560003373ffffffffffffffffffffffffffffffffffffffff1673ffffffffffffffffffffffffffffffffffffffff16815260200190815260200160002060000154111561096b5760019050610970565b600090505b806109b0576040517f08c379a00000000000000000000000000000000000000000000000000000000081526004016109a790611e37565b60405180910390fd5b6014600660003373ffffffffffffffffffffffffffffffffffffffff1673ffffffffffffffffffffffffffffffffffffffff168152602001908152602001600020600001541015610b4c5760008060009054906101000a900473ffffffffffffffffffffffffffffffffffffffff1673ffffffffffffffffffffffffffffffffffffffff166323b872dd30336802b5e3af16b18800006040518463ffffffff1660e01b8152600401610a6493929190611d2c565b602060405180830381600087803b158015610a7e57600080fd5b505af1158015610a92573d6000803e3d6000fd5b505050506040513d601f19601f82011682018060405250610ab69190810190611878565b905080610af8576040517f08c379a0000000000000000000000000000000000000000000000000000000008152600401610aef90611e97565b60405180910390fd5b600660003373ffffffffffffffffffffffffffffffffffffffff1673ffffffffffffffffffffffffffffffffffffffff16815260200190815260200160002060000160008154809291906001019190505550505b6000610b5f42610b5a610893565b611416565b90506000610b7482610b6f610795565b611416565b9050600160008154809291906001019190505550610b9061146b565b60405180610140016040528060015481526020013373ffffffffffffffffffffffffffffffffffffffff1681526020016000815260200184815260200183815260200160008152602001600081526020016000151581526020016000151581526020018781525090508060026000836000015181526020019081526020016000206000820151816000015560208201518160010160006101000a81548173ffffffffffffffffffffffffffffffffffffffff021916908373ffffffffffffffffffffffffffffffffffffffff16021790555060408201518160020155606082015181600301556080820151816004015560a0820151816005015560c0820151816006015560e08201518160070160006101000a81548160ff0219169083151502179055506101008201518160070160016101000a81548160ff021916908315150217905550610120820151816008016000820151816000019080519060200190610cfb9291906114de565b506020820151816001019080519060200190610d189291906114de565b506040820151816002019080519060200190610d359291906114de565b506060820151816003019080519060200190610d529291906114de565b506080820151816004019080519060200190610d6f9291906114de565b5060a0820151816005015560c0820151816006015560e0820151816007015561010082015181600801556101208201518160090160006101000a81548173ffffffffffffffffffffffffffffffffffffffff021916908373ffffffffffffffffffffffffffffffffffffffff16021790555050509050506001600460008360000151815260200190815260200160002060006101000a81548160ff0219169083151502179055507fc2c021f5d73c63c481d336fbbafec58f694fc45095f00b02d2deb8cca59afe078160000151604051610e499190611ed7565b60405180910390a18060000151945050505050919050565b60066020528060005260406000206000915090508060000154905081565b600080600560003373ffffffffffffffffffffffffffffffffffffffff1673ffffffffffffffffffffffffffffffffffffffff16815260200190815260200160002060000154141561102957604051806020016040528062f0c8a04201815250600560003373ffffffffffffffffffffffffffffffffffffffff1673ffffffffffffffffffffffffffffffffffffffff1681526020019081526020016000206000820151816000015590505060008060009054906101000a900473ffffffffffffffffffffffffffffffffffffffff1673ffffffffffffffffffffffffffffffffffffffff166323b872dd3033866040518463ffffffff1660e01b8152600401610f8b93929190611d63565b602060405180830381600087803b158015610fa557600080fd5b505af1158015610fb9573d6000803e3d6000fd5b505050506040513d601f19601f82011682018060405250610fdd9190810190611878565b90508061101f576040517f08c379a000000000000000000000000000000000000000000000000000000000815260040161101690611e97565b60405180910390fd5b60009150506110e0565b42600560003373ffffffffffffffffffffffffffffffffffffffff1673ffffffffffffffffffffffffffffffffffffffff168152602001908152602001600020600001541061107b57600190506110e0565b604051806020016040528062f0c8a04201815250600560003373ffffffffffffffffffffffffffffffffffffffff1673ffffffffffffffffffffffffffffffffffffffff16815260200190815260200160002060008201518160000155905050600290505b919050565b60015481565b60056020528060005260406000206000915090508060000154905081565b600060026000848152602001908152602001600020905060008160120160008673ffffffffffffffffffffffffffffffffffffffff1673ffffffffffffffffffffffffffffffffffffffff1681526020019081526020016000209050816004015442111561119e5760006004600086815260200190815260200160002060006101000a81548160ff0219169083151502179055505b600115156004600086815260200190815260200160002060009054906101000a900460ff16151514611205576040517f08c379a00000000000000000000000000000000000000000000000000000000081526004016111fc90611eb7565b60405180910390fd5b60008060009054906101000a900473ffffffffffffffffffffffffffffffffffffffff1673ffffffffffffffffffffffffffffffffffffffff166370a08231336040518263ffffffff1660e01b81526004016112619190611d11565b60206040518083038186803b15801561127957600080fd5b505afa15801561128d573d6000803e3d6000fd5b505050506040513d601f19601f820116820180604052506112b1919081019061190b565b90506000819050600015158360000160009054906101000a900460ff16151514611310576040517f08c379a000000000000000000000000000000000000000000000000000000000815260040161130790611e57565b60405180910390fd5b841561133f576113328460050154826bffffffffffffffffffffffff16611416565b8460050181905550611364565b61135b8460060154826bffffffffffffffffffffffff16611416565b84600601819055505b60018360000160006101000a81548160ff021916908315150217905550848360000160016101000a81548160ff021916908315150217905550808360000160026101000a8154816bffffffffffffffffffffffff02191690836bffffffffffffffffffffffff1602179055507f877856338e13f63d0c36822ff0ef736b80934cd90574a3a5bc9262c39d217c46878787846040516114059493929190611d9a565b60405180910390a150505050505050565b600080828401905083811015611461576040517f08c379a000000000000000000000000000000000000000000000000000000000815260040161145890611e77565b60405180910390fd5b8091505092915050565b60405180610140016040528060008152602001600073ffffffffffffffffffffffffffffffffffffffff16815260200160008152602001600081526020016000815260200160008152602001600081526020016000151581526020016000151581526020016114d861155e565b81525090565b828054600181600116156101000203166002900490600052602060002090601f016020900481019282601f1061151f57805160ff191683800117855561154d565b8280016001018555821561154d579182015b8281111561154c578251825591602001919060010190611531565b5b50905061155a91906115c7565b5090565b604051806101400160405280606081526020016060815260200160608152602001606081526020016060815260200160008152602001600081526020016000815260200160008152602001600073ffffffffffffffffffffffffffffffffffffffff1681525090565b6115e991905b808211156115e55760008160009055506001016115cd565b5090565b90565b6000813590506115fb81612175565b92915050565b6000813590506116108161218c565b92915050565b6000815190506116258161218c565b92915050565b600082601f83011261163c57600080fd5b813561164f61164a82611feb565b611fbe565b9150808252602083016020830185838301111561166b57600080fd5b611676838284612122565b50505092915050565b6000610140828403121561169257600080fd5b61169d610140611fbe565b9050600082013567ffffffffffffffff8111156116b957600080fd5b6116c58482850161162b565b600083015250602082013567ffffffffffffffff8111156116e557600080fd5b6116f18482850161162b565b602083015250604082013567ffffffffffffffff81111561171157600080fd5b61171d8482850161162b565b604083015250606082013567ffffffffffffffff81111561173d57600080fd5b6117498482850161162b565b606083015250608082013567ffffffffffffffff81111561176957600080fd5b6117758482850161162b565b60808301525060a0611789848285016117e9565b60a08301525060c061179d848285016117e9565b60c08301525060e06117b1848285016117e9565b60e0830152506101006117c6848285016117e9565b610100830152506101206117dc848285016115ec565b6101208301525092915050565b6000813590506117f8816121a3565b92915050565b60008151905061180d816121a3565b92915050565b60006020828403121561182557600080fd5b6000611833848285016115ec565b91505092915050565b6000806040838503121561184f57600080fd5b600061185d858286016115ec565b925050602061186e858286016117e9565b9150509250929050565b60006020828403121561188a57600080fd5b600061189884828501611616565b91505092915050565b6000602082840312156118b357600080fd5b600082013567ffffffffffffffff8111156118cd57600080fd5b6118d98482850161167f565b91505092915050565b6000602082840312156118f457600080fd5b6000611902848285016117e9565b91505092915050565b60006020828403121561191d57600080fd5b600061192b848285016117fe565b91505092915050565b6000806040838503121561194757600080fd5b6000611955858286016117e9565b925050602061196685828601611601565b9150509250929050565b611979816120a4565b82525050565b61198881612044565b82525050565b61199781612044565b82525050565b6119a681612056565b82525050565b6119b5816120b6565b82525050565b6119c4816120da565b82525050565b60006119d582612017565b6119df8185612022565b93506119ef818560208601612131565b6119f881612164565b840191505092915050565b6000611a0e82612017565b611a188185612033565b9350611a28818560208601612131565b611a3181612164565b840191505092915050565b6000611a49601f83612033565b91507f75736572206973206e6f742063757272656e746c792076616c696461746564006000830152602082019050919050565b6000611a89602d83612033565b91507f476f7665726e6f72416c7068613a3a5f63617374566f74653a20766f7465722060008301527f616c726561647920766f746564000000000000000000000000000000000000006020830152604082019050919050565b6000611aef601183612033565b91507f6164646974696f6e206f766572666c6f770000000000000000000000000000006000830152602082019050919050565b6000611b2f602483612033565b91507f546f6b656e73206e6f74207472616e7366657272656420746f206d73672e736560008301527f6e646572000000000000000000000000000000000000000000000000000000006020830152604082019050919050565b6000611b95602a83612033565b91507f476f7665726e6f72416c7068613a3a5f63617374566f74653a20766f74696e6760008301527f20697320636c6f736564000000000000000000000000000000000000000000006020830152604082019050919050565b6000610140830160008301518482036000860152611c0c82826119ca565b91505060208301518482036020860152611c2682826119ca565b91505060408301518482036040860152611c4082826119ca565b91505060608301518482036060860152611c5a82826119ca565b91505060808301518482036080860152611c7482826119ca565b91505060a0830151611c8960a0860182611ce4565b5060c0830151611c9c60c0860182611ce4565b5060e0830151611caf60e0860182611ce4565b50610100830151611cc4610100860182611ce4565b50610120830151611cd961012086018261197f565b508091505092915050565b611ced81612082565b82525050565b611cfc81612082565b82525050565b611d0b81612110565b82525050565b6000602082019050611d266000830184611970565b92915050565b6000606082019050611d41600083018661198e565b611d4e6020830185611970565b611d5b60408301846119bb565b949350505050565b6000606082019050611d78600083018661198e565b611d856020830185611970565b611d926040830184611cf3565b949350505050565b6000608082019050611daf600083018761198e565b611dbc6020830186611cf3565b611dc9604083018561199d565b611dd66060830184611d02565b95945050505050565b6000602082019050611df4600083018461199d565b92915050565b6000602082019050611e0f60008301846119ac565b92915050565b60006020820190508181036000830152611e2f8184611a03565b905092915050565b60006020820190508181036000830152611e5081611a3c565b9050919050565b60006020820190508181036000830152611e7081611a7c565b9050919050565b60006020820190508181036000830152611e9081611ae2565b9050919050565b60006020820190508181036000830152611eb081611b22565b9050919050565b60006020820190508181036000830152611ed081611b88565b9050919050565b6000602082019050611eec6000830184611cf3565b92915050565b600061014082019050611f08600083018d611cf3565b611f15602083018c61198e565b611f22604083018b611cf3565b611f2f606083018a611cf3565b611f3c6080830189611cf3565b611f4960a0830188611cf3565b611f5660c0830187611cf3565b611f6360e083018661199d565b611f7161010083018561199d565b818103610120830152611f848184611bee565b90509b9a5050505050505050505050565b6000604082019050611faa6000830185611cf3565b611fb76020830184611cf3565b9392505050565b6000604051905081810181811067ffffffffffffffff82111715611fe157600080fd5b8060405250919050565b600067ffffffffffffffff82111561200257600080fd5b601f19601f8301169050602081019050919050565b600081519050919050565b600082825260208201905092915050565b600082825260208201905092915050565b600061204f82612062565b9050919050565b60008115159050919050565b600073ffffffffffffffffffffffffffffffffffffffff82169050919050565b6000819050919050565b60006bffffffffffffffffffffffff82169050919050565b60006120af826120ec565b9050919050565b60006120c1826120c8565b9050919050565b60006120d382612062565b9050919050565b60006120e582612082565b9050919050565b60006120f7826120fe565b9050919050565b600061210982612062565b9050919050565b600061211b8261208c565b9050919050565b82818337600083830152505050565b60005b8381101561214f578082015181840152602081019050612134565b8381111561215e576000848401525b50505050565b6000601f19601f8301169050919050565b61217e81612044565b811461218957600080fd5b50565b61219581612056565b81146121a057600080fd5b50565b6121ac81612082565b81146121b757600080fd5b5056fea365627a7a72315820ac70327ce5d86a284aa1253c844de53f63fb00b6abacd4dabeb3efe61d77a74c6c6578706572696d656e74616cf564736f6c63430005100040",
  "linkReferences": {},
  "deployedLinkReferences": {}
}